:100000000C9434000C943E000C943E000C943E0082
:100010000C943E000C943E000C943E000C943E0068
:100020000C943E000C943E000C943E000C943E0058
:100030000C943E000C943E000C943E000C943E0048
:100040000C943E000C943E000C943E000C943E0038
:100050000C943E000C943E000C943E000C943E0028
:100060000C943E000C943E0011241FBECFEFD8E04C
:10007000DEBFCDBF0E9440000C9462000C940000D3
:10008000209A389880E480937C0087E880937A00F7
:1000900080917A00806480937A0080917A0086FD56
:1000A000FCCF80917800909179008130924040F0AF
:1000B000289A8FE99FE00197F1F700C00000E8CF90
:0800C0002898F7CFF894FFCF58
:00000001FF
