:100000000C9434000C943E000C943E000C943E0082
:100010000C943E000C943E000C943E000C943E0068
:100020000C943E000C943E000C943E000C943E0058
:100030000C943E000C943E000C943E000C943E0048
:100040000C943E000C943E000C943E000C943E0038
:100050000C943E000C943E000C943E000C943E0028
:100060000C943E000C943E0011241FBECFEFD8E04C
:10007000DEBFCDBF0E9440000C945E000C940000D7
:10008000219A81E8809380008AE08093810091E04A
:1000900080E0282F30E03093890020938800EFE340
:1000A000FFE13197F1F700C00000890F8F3F21F089
:1000B0008111EFCF91E0EDCF9FEFEBCFF894FFCF21
:00000001FF
