:100000000C9434000C943E000C943E000C943E0082
:100010000C943E000C943E000C943E000C943E0068
:100020000C943E000C943E000C943E000C94400056
:100030000C943E000C943E000C943E000C943E0048
:100040000C943E000C943E000C943E000C943E0038
:100050000C943E000C943E000C943E000C943E0028
:100060000C943E000C943E0011241FBECFEFD8E04C
:10007000DEBFCDBF0E944D000C945D000C940000CB
:100080008F938FB78F939F9385B190E2892785B91E
:100090009F918F918FBF8F911895259A8DE08093B6
:1000A000810084E89EE1909389008093880082E03B
:0E00B00080936F0078940000FECFF894FFCF8D
:00000001FF
